S013000062745F736F635F77616E64792E733337E5
S31508012000C00A00202943010879BC030879BC0308E2
S31508012010A5D7030879BC030879BC030879BC03086A
S3150801202079BC030879BC030879BC030879BC0308A1
S3150801203079BC030800E7040879B4030879BC0308E6
S3150801204079BC030879BC030879BC030879BC030881
S3150801205079BC030879BC030879BC030879BC030871
S3150801206079BC030879BC030879BC03083939010826
S3150801207073B5030879BC030879BC030891480108BC
S3150801208079BC030879BC030879BC030879BC030841
S3150801209079BC0308B563010879BC030879BC030850
S315080120A079BC0308316501080D65010879BC030887
S315080120B079BC0308F97E0308DD880308279E04080E
S315080120C0239E0408C5800308339E04082B9E040832
S315080120D0B58803082F9E04081D890308818903080A
S315080120E079BC030879BC030879BC030879BC0308E1
S315080120F0E3D4030879BC030879BC030879BC03084F
S3150801210079BC030879BC030879BC030879BC0308C0
S3150801211079BC030879BC030879BC030879BC0308B0
S3150801212079BC030879BC030879BC030879BC0308A0
S3150801213079BC030879BC030879BC030879BC030890
S3150801214079BC030879BC030879BC0308B1D803082C
S31508012150A967030879BC0308599B04085F9B04080F
S3150801216079BC030879BC030879BC030879BC030860
S31508012170013800D0FCE77047B7EE007AC7EE007A5F
S3150801218010B580ED140AC0ED157A044610EE100A52
S3150801219026F0D2FD02460B4605A1D1E9000126F03B
S315080121A04DFF27F0E3F8A06510BD00BFAFF300802F
S315080121B0399D52A246DF913F2DE9F0432DED048B5F
S315080121C0884600F15C05044690ED098AD0ED0A8A35
S315080121D090ED0B9A85B02846174610EE106A29F03D
S315080121E0DBFCB8F1000F53D0606A26F0A5FD46A3C3
S315080121F0D3E900238046894627F07CF8002847D092
S3150801220043A3D3E900234046494627F069F8002845
S315080122103ED0A06A26F090FD3BA3D3E90023804671
S31508012220894627F067F898B339A3D3E900234046CE
S31508012230494627F055F858B3B5EEC09AF1EE10FAAB
S31508012240B1EE488AB1EE680A04F1680825DB28F080
S31508012250DDFC8DED010AB0EE480A28F0D7FCB1EE97
S31508012260400A2846424601A98DED020A039629F03D
S31508012270CBFC284629F083FC0FB900236366D4ED0D
S31508012280147AB6EE000A284680EE270A29F09CFC45
S3150801229005B0BDEC048BBDE8F08328F0B7FC10EE61
S315080122A0100A26F049FD02460B461BA1D1E9000199
S315080122B026F0E2FB27F05AF8B0EE480A019028F01A
S315080122C0A5FCB1EE400A30468DED020A26F034FD32
S315080122D011A3D3E9002326F0D1FB27F047F8039091
S315080122E001A829F04CFC4246284601A929F08CFC94
S315080122F0284629F044FCD4ED187AF1EE677AC4ED44
S31508012300187AB9E7AFF30080C139234A7B83EFBF57
S31508012310C139234A7B83EF3F182D4454FB210940D9
S315080123202DE9F0471EA7D7E900670FF27C09D9E91D
S3150801233000898246DAF8000026F0FEFC32463B4662
S3150801234004460D4626F0D6FF98B90FF26409D9E975
S31508012350008915A7D7E90067DAF8000026F0ECFC32
S3150801236042464B4604460D4626F0B0FF60B9BDE825
S31508012370F08742464B462046294626F07DFB26F045
S31508012380F5FFCAF80000D5E732463B4620462946FE
S3150801239026F074FB26F0EAFFCAF80000DCE700BF66
S315080123A0182D4454FB210940182D4454FB2119408A
S315080123B0182D4454FB2109C038B50022164B51EC9F
S315080123C0100B26F011FD10A3D3E9002304460D4690
S315080123D026F09AFF70B90EA3D3E9002320462946B1
S315080123E026F074FF58B92046294627F005FB00EE6A
S315080123F0100A38BD47F6FF3300EE103AF9E74FF6F3
S31508012400FF33F9E7AFF300800000000000FCEF405E
S315080124100000000000FCEFC00000E04000000000E2
S315080124202DE9F84F4FF000432DED028B23FA00F00A
S3150801243057EC106B59EC118B93468A4626F06AFCC9
S31508012440424604460D464B463046394626F0CCFCF4
S3150801245002460B462046294626F0C6FC02460B468E
S3150801246043EC182B0AA3D3E9002326F04DFF08B144
S315080124709FED078B59465046B0EE480AF0EE680ABA
S31508012480BDEC028BBDE8F84F0CF0DEB9AFF3008066
S315080124900000C0FFFFFFDF412DE9F74F0446DDE9E4
S315080124A00C7B886815461E468A4626F045FC8046FA
S315080124B0A868894626F040FC02460B46404649462E
S315080124C026F092FC80468946D6B1B06826F034FCDF
S315080124D002460B464046494626F0CEFA8046B8687B
S315080124E021F0004926F028FC02460B46404649469B
S315080124F026F0A4FD11A3D3E9002326F0F1FE50B17D
S315080125003B462A4651462046CDF830B003B0BDE8D1
S31508012510F04F0CF02FBA064B20460093656940F23E
S315080125203F13044A0449A847012003B0BDE8F08FC8
S31508012530760C0508BE0B0508D0FA04087B14AE47CD
S31508012540E17A943F000000002DE9F04F2DED028B52
S315080125500B6804468A4689B013B11B68012B12D051
S315080125600125CDE902359F4B204601939E4B9F4A93
S315080125700093666960239E49B047284609B0BDECB9
S31508012580028BBDE8F08F4D6815B12D68012D0DD070
S315080125900126944BCDE902560193964B009361238C
S315080125A065692046914A9249A84743E0D0F80C90BC
S315080125B00022D9F8003048469B699847804640B9B9
S315080125C08D4B0093632366692046884A8B49B04739
S315080125D0D3E743691B68002B04DC894B00936669C2
S315080125E06423F1E7D9F80030002251464846DB69F1
S315080125F09847064620B9834B009366696623E3E745
S31508012600DAF80C7027B9804B009366696823DBE713
S3150801261098F81C30072B1CD140F202412046A36BC7
S31508012620984748B9794B00936E23656920466F4AE6
S315080126307249A8470125A0E7B86240F2024120463F
S31508012640A36B984720B9724B009365697223EDE72E
S31508012650F862327F98F81C30072A08D1092B39D03D
S31508012660072B0FD06B4B009365697823DEE79A42F7
S3150801267030D0CDE90232684B0193684B0093656906
S315080126807B238EE7F3684BB10022CDE90232644B16
S315080126900193644B00936569802382E7F7EE001A7C
S315080126A0BFEE001ADFED600ABAEE040AB96A5F489E
S315080126B00EF0F0FEF7EE001ABFEE001AF0EE610A10
S315080126C09FED590AF96A5A480EF0E4FEF368FB6170
S315080126D0B3683B6298F81C50DAF810A0092D4AD065
S315080126E0072D40F03B81F3686BB10022CDE9023238
S315080126F04B4B01934B4B00932623656920463B4A76
S315080127003B49A84729E0DFED4B7A96ED027AB4EE0C
S31508012710E77AF1EE10FADFED486ACCBF77EE677A11
S3150801272077EEC77AF4EEE67AF1EE10FA40F3CF8047
S315080127304FF07C53002217EE100ACDE9042326F048
S31508012740FBFA3E4BCDE9020101933D4B009327234A
S3150801275065692046254A3B49A8470125D9F800302D
S31508012760414648465B6A9847D9F80030314648469B
S315080127705B6A984701E7307F072871D1F36813F53B
S31508012780004F09D0304ACDE90232304B0193254B2F
S31508012790009365692C23B1E7DFED2D7A96ED027A70
S315080127A0B4EEE77AF1EE10FADFED2A6ACCBF77EEDE
S315080127B0677A77EEC77AF4EEE67AF1EE10FA40F325
S315080127C0A7800022244B17EE100ACDE9042326F030
S315080127D0B3FA224BCDE902010193194B00936569BE
S315080127E02D23B6E7D5200508D41F0508E5220508D7
S315080127F03DFB0408E41F0508E7FA0408D0FA0408B3
S3150801280067230508F8FA0408812305089C230508A7
S31508012810B32305081A0D0508512205085E22050885
S31508012820740C0508D6230508000000008B1404085B
S315080128307D140408000000386F12033310240508BC
S315080128401C240508F02305080080FFFF312405082C
S31508012850000080376F1283320000F03E38240508E5
S31508012860092813D0D4F814A00BF02AFE07462846E7
S315080128700BF026FE564BCDE902700193554B2046C7
S315080128800093554A30235549D04766E7F36813F153
S31508012890800F0AD06FF07F02CDE90232504B0193C7
S315080128A0504B00936569312328E796ED027ADFEDEF
S315080128B04E7AB4EE677AF1EE10FA29D04B4B2046E0
S315080128C0009365693223444A4949A84745E7D8F838
S315080128D0080026F031FA0446DAF800000D4626F01B
S315080128E02BFA02460B462046294626F07DFA36A3E0
S315080128F0D3E9002326F0A2FB07F1080B41EC100BE4
S31508012900584607A90BF05EFF079BFB60002525E7E4
S31508012910D8F8080026F010FA41EC180BDAF800008E
S3150801292026F00AFA07F1080441EC100BB0EE481A32
S31508012930F0EE681A2146052007AAFFF771FD0799E7
S315080129401F22F96005202DF071FF26F0E3F901F148
S315080129500043194626F0E2FCB861D7E7012D13D0EA
S31508012960284667690BF0ACFD054601200BF0A8FD6A
S31508012970204BCDE9025001931F4B20460093164A7E
S315080129804F231649B847E8E6307F012813D0D4F813
S3150801299014A00BF095FD074628460BF091FD154B43
S315080129A0CDE9027001930B4B204600930A4A502346
S315080129B00A49D047D2E6DAF8000026F0BDF9C7E998
S315080129C00001A3E7AFF30080140014001400243FAC
S315080129D04521050851220508E5220508372205087B
S315080129E044240508D62305080000803B4924050828
S315080129F0D0FA0408052005085E2205080000000033
S31508012A0070B505463E4C8AB020B100230088236084
S31508012A1014F048FD3B4836F0D2FD3B4E3B4B304661
S31508012A2033603B4B736031F0E3FD002130461FF004
S31508012A30F3F831A3D3E90023A062C4E9062331F0F0
S31508012A40DFFDD4E90623194310434FF0FF33C4E9E8
S31508012A500601CDE900014FF0FF32A06A36F0F6FD16
S31508012A6002224FF0FF31A06A36F0F5FD012014F07D
S31508012A70D9FA4FF4007300222649A06A36F041FEBE
S31508012A80B0F5007F36D100239422CDE907330993A7
S31508012A903C23CDE9033205939623A06A03A906933D
S31508012AA01FF008FA25B3287C14F054FF0546E0B94F
S31508012AB0A06A36F007FF14F0F5FE14F095FA20B176
S31508012AC04FF48070002112F099F914F09DFA20B1A3
S31508012AD04FF40060002112F091F901201FF0F0F87F
S31508012AE00D4A0E49A06A31F081FD28460AB070BD2B
S31508012AF0FF20D9E70725F8E709D501552000000089
S31508012B00582F0020690345EC304A0020FD7602085B
S31508012B10244A00202448002095450408D545040880
S31508012B2051EC100BF8B5C1F30A530C4610EE106AB6
S31508012B30A3F2FF35132D30DC002D1EDB384F2F4154
S31508012B4001EA070303432DD033A3D3E9002325F074
S31508012B5095FF0022002326F0D7FB48B1002C04DAA2
S31508012B604FF4801343FA05F52C4424EA070400269A
S31508012B702346324643EC102BF8BD27A3D3E900239D
S31508012B8025F07CFF0022002326F0BEFB0028EFD0AB
S31508012B90002C29DB00263446EAE7332D05DDB5F599
S31508012BA0806F19D041EC100BF8BDA3F213434FF017
S31508012BB0FF37DF400742F5D017A3D3E9002325F0F5
S31508012BC05DFF0022002326F09FFB0028D0D0002CB1
S31508012BD013DB26EA0706CBE710EE102A0B4625F08B
S31508012BE04DFF41EC100BF8BD24F000430D4A334369
S31508012BF00026B34218BF1446BAE7142D08D001239C
S31508012C00C5F1340503FA05F5AE1928BFE418E0E75E
S31508012C100134DEE7AFF300809C7500883CE4377E1B
S31508012C20FFFF0F000000F0BF10B5054C237833B93C
S31508012C30044B13B1044800E000BF0123237010BD03
S31508012C40B031002000000000B868050808B5034B3C
S31508012C501BB10349034800E000BF08BD000000009E
S31508012C60B4310020B8680508A3F5803A704700BF5B
S31508012C70174B002B08BF134B9D46FFF7F5FF0021A5
S31508012C808B460F461348144A121A37F03AF90E4B77
S31508012C90002B00D098470D4B002B00D098470020F9
S31508012CA0002104000D000D48002802D00C4800E060
S31508012CB000BF26F027FF2000290028F0D1FB26F0C7
S31508012CC0FBFE00BF00000800000000000000000035
S31508012CD0C00A0020F00E0020AC55002000000000BC
S31508012CE00000000037B501F057FA00B301F032FAD7
S31508012CF0684601F0F5F906220E490F4C0B68BDF836
S31508012D0000505A43A018A552BDF80220013342804B
S31508012D10BDF80420592B82800B6008DDC72B4FF0C4
S31508012D200100C8BF0023054AC8BF0B60107003B075
S31508012D3030BD00BFCC3100200C4F00200C540020C0
S31508012D4013B501F061F90446C8B9B3EE090A01F0F1
S31508012D5087F9012223461146104604F0C1FF22468F
S31508012D600949012003F0A6FBFF2802464FF001019D
S31508012D7008D023460846CDE9001104F059FF20463C
S31508012D8002B010BD0C46FAE7E52C0108F8B51D4B53
S31508012D9004461B780E4693B329F0BDFA4FF0060C8C
S31508012DA0194B1A491A682346951BB41A6219964291
S31508012DB021DD2A46002DB8BF05F1C8020CFB02F237
S31508012DC08F18B7F902E08A5EB7F9047007EE10EAC0
S31508012DD007EE907A06EE902AB8EEC77AF8EEE66A1A
S31508012DE0F8EEE77AC3ED006A83ED017AC3ED027A5C
S31508012DF001350C33DAE729F092FA0020F8BD0120F3
S31508012E00FCE700BF0C540020CC3100200C4F0020F9
S31508012E1008B5134A134813780133DBB21370124A03
S31508012E201278013A052A17D8DFE802F00D0D0D0AC6
S31508012E30160328F06FFFBDE808400C4828F067BF65
S31508012E4028F065FFF7E7DB07FAD528F063FFBDE849
S31508012E500840064828F05EBF28F059FFF7E700BF8B
S31508012E6077540020E8A904087654002000AA04082B
S31508012E7037B51B4D1B4C287028F0B9FB28F0B8FB59
S31508012E802B78194AC3EB0313134418490022206807
S31508012E902AF077FB2B78062B19D101220DF10703AE
S31508012EA08DF80720124913480988007817F0C4FBE2
S31508012EB0054628F09CFB28F09BFB9DF807300E4938
S31508012EC02068AAB22AF05DFB002003B030BD052BAD
S31508012ED0FAD1002301228DF807300DF10703E1E746
S31508012EE076540020143300200D540020B8A204089B
S31508012EF0BC5300201A0D0020D6A2040813B5204C95
S31508012F0028F075FB28F074FB1E4920682AF039FB66
S31508012F1028F06DFB28F06CFB20681B4C1B492AF036
S31508012F2030FB20461A4937F0D7F81A4904F10F0041
S31508012F3037F0D2F8184904F11E0037F0CDF81749D1
S31508012F4004F12D0037F0C8F8154904F13C0037F0B3
S31508012F50C3F8144904F14B0037F0BEF8124904F1DD
S31508012F605A0037F0B9F800236421CDE900330F4A36
S31508012F700F4808F097FA02B0BDE8104000F0F2B920
S31508012F80143300200EA304080D54002026A30408B8
S31508012F9032A3040837A304083CA3040844A304087D
S31508012FA0A103050853A3040855030508112E0108B2
S31508012FB0D43100202DE9F0470368AF4A23F47F4353
S31508012FC023F00703934204468AB000F042810FD8E2
S31508012FD0AA4A934200F09D8002F58032934200F09E
S31508012FE09F80A2F5A022934227D00AB0BDE8F087B8
S31508012FF0A34A934200F0AE8002F18062934200F048
S31508013000C58002F17B429342EFD1427A102AECD174
S3150801301000F10A019B4836F03DFF0028E5D128F06A
S31508013020E6FA28F0E5FA984B984918682AF0A9FAB9
S31508013030D4F80520964B1A60D7E7934D28F0D7FAAE
S3150801304028F0D6FA934928682AF09BFA0120FFF757
S315080130500FFF0121084617F03FFB044628F0C7FA7F
S3150801306028F0C6FA8C49A2B251E004EB0A03DD7DC9
S315080130701B7E083B012B15D86E1E0AF11501324637
S31508013080494402A836F016FF05F127030DEB03069E
S315080130900023404606F8203C02A937F013F8002819
S315080130A008BF0127013555445FFA85FAA37D013B1F
S315080130B09A45DADB002F98D0734D28F098FA28F054
S315080130C097FA764928682AF05CFA754B0093617A73
S315080130D0A67AE27A41EA06210123D4F8050017F017
S315080130E03FFA044628F083FA28F082FA6D492868DF
S315080130F0A2B22AF046FA002C7FF477AF17F0E0FA6D
S31508013100044628F074FA28F073FA6749A2B22868C7
S3150801311077E00027DFF8BC81BA4600F10409C5E764
S31508013120594D28F064FA28F063FA604928682AF0AC
S3150801313028FA0220FFF79CFE594B1021514A1878AC
S3150801314017F04EFA044628F052FA28F051FA58496F
S31508013150A2B2DCE7027A102A7FF447AF00F109012F
S31508013160544836F097FE00287FF43FAF28F03FFA1F
S3150801317028F03EFA444B504918682AF002FAA27917
S31508013180637943EA02234D4A13802EE74C4B1B7899
S31508013190062B3FF62AAF042B4FD8022B15D0032B4B
S315080131A07FF423AF384D28F022FA28F021FA454951
S315080131B028682AF0E6F9414B1B88002B31D00420F8
S315080131C00AB0BDE8F047FFF753BE2F4C304E28F042
S315080131D00EFA28F00DFA3B4920682AF0D2F933682D
S315080131E02F4D9BB10320FFF743FE3168287817F06E
S315080131F00DFA054628F0FBF928F0FAF93249AAB280
S3150801320020680AB0BDE8F0472AF0BBB9287817F05C
S31508013210D5F9054628F0EBF928F0EAF92B49AAB2BF
S31508013220EEE71F4B187817F0C9F9044628F0DFF9BD
S3150801323028F0DEF92549A2B269E728F0D8F928F07D
S31508013240D7F9114B1F4918680AB0BDE8F0472AF0AB
S3150801325098B90D4D28F0CBF928F0CAF91C49286808
S315080132602AF08FF9FF220E4B1A700023084A1360C1
S31508013270124A1380EAE600BFA0000601A000050075
S31508013280A0000902ECA5040814330020A4A404082C
S31508013290D031002057A3040881A30408B2A3040867
S315080132A01A0D0020F4A3040818A4040839A4040874
S315080132B069A40408DCA50408CFA40408BC530020AB
S315080132C07654002001A5040838A504086AA504084F
S315080132D08FA50408A3A30408062808D8431F012BB1
S315080132E003D8044B1B78032B01D9FFF7C1BD012075
S315080132F0704700BF7654002038B5044628F0DBFC39
S31508013300114B05469C4219D0104A944214BFFF241A
S31508013310012428F06CF928F06BF90D482B46224652
S315080133200C4900682AF02DF9012D0BD1FF2C09D083
S3150801333034B90520BDE83840FFF7CEBF0024E8E7D9
S315080133400620F7E738BD00BFB8A90408D0A90408C4
S3150801335014330020BFA504080122014B1A707047D7
S315080133607854002013B5204826F0BCFF1F4826F0E4
S31508013370B9FF0AF0A9FF1E4C20600AF09FFF1D4BFA
S31508013380226818605369196804290BD159680129FB
S3150801339008D199685A2905D1DB68032B02D1137F15
S315080133A0012B05D0144802B0BDE8104026F09ABF9B
S315080133B09369124A9B081360FFF7C2FC08B11048CB
S315080133C0F1E700210846FFF7E1FC0028F9D10D4B8A
S315080133D0C82118700C4A0346CDE900000B4808F0CD
S315080133E061F80B48DFE700BFFCA5040807A6040837
S315080133F0F8310020F43100200EA60408FC31002023
S315080134003AA60408785400205933010800320020EE
S315080134105CA604080322204B10B519681F4B91FBC3
S31508013420F2F11B681869FFF7B1FC012832D01C4B71
S315080134301A787AB300221B4C1A7020680CF060FFC8
S31508013440014620B1BDE81040174826F04BBF206859
S315080134500CF03CFD006900F02FF804462AF0FCF94F
S3150801346008F05CF8014624B9BDE810400F4826F07B
S31508013470B3BE012C07D10E4826F0AEFE0520BDE8E5
S315080134801040FFF729BF022C04D10A4826F0A4FEF2
S315080134900620F4E710BD00BFFC310020F8310020FA
S315080134A078540020F431002062A604087AA604089C
S315080134B094A60408AEA60408F0B50FC82C4F2D4CE7
S315080134C03D68DFED2D6A04EB051686E80F0000223C
S315080134D00135042DC8BF154623464FF0FF30F0EEDF
S315080134E0665AB1EE046A3D60F3EC017A93ED037A0C
S315080134F077EEA57A77EE877A93ED077A77EE877A6C
S3150801350093ED0B7A77EE877A93ED0F7A77EE877AD2
S31508013510411C87EE867A27D0B4EEE67AF1EE10FAE8
S3150801352022DCB0EE667A0132042A1AD1134B1A68E4
S31508013530002AC4BF02F1FF321A60032810D0DFED5A
S31508013540107AB4EEE77AF1EE10FA0FD40D4A116843
S31508013550814202D11968002908DC1221106019601C
S31508013560F0BDF0EE476ABFE71046DCE70320F7E750
S3150801357020320020283200200000000024320020DA
S315080135806666663FC40A002030B503687F4A23F49D
S315080135907F4323F00703934289B040F0F480082261
S315080135A0002112207A4B17F05DF8044610B3794DC5
S315080135B07949286829F0E5FF7849286829F0E1FF63
S315080135C028F015F828F014F8754B764A00937649D1
S315080135D03D23286829F0D5FF74492346744A28688B
S315080135E029F0CFFF204600F09BFA7249286829F096
S315080135F0C8FFFEE70146032214206F4B17F032F885
S31508013600044610B3634D6449286829F0BAFF634933
S31508013610286829F0B6FF27F0EAFF27F0E9FF604B93
S31508013620604A009360494B23286829F0AAFF5F493D
S3150801363023465F4A286829F0A4FF204600F070FA5D
S315080136405C49286829F09DFFFEE7014605221620F8
S315080136505A4B17F007F8054610B34E4C4E492068E9
S3150801366029F08FFF4D49206829F08BFF27F0BFFF0E
S3150801367027F0BEFF4A4B4B4A00934B495923206812
S3150801368029F07FFF49492B46494A206829F079FFE5
S31508013690284600F045FA4749206829F072FFFEE7F7
S315080136A00DF10F0104A817F02BF8044610B3394D94
S315080136B03949286829F065FF3849286829F061FFE2
S315080136C027F095FF27F094FF354B364A0093364984
S315080136D06423286829F055FF34492346344A286863
S315080136E029F04FFF204600F01BFA3249286829F0D5
S315080136F048FFFEE79DF8153001468DF818309DF80C
S31508013700143008228DF819309DF8133018208DF8D9
S315080137101A30FF238DF81B30FE238DF81C309DF8D7
S3150801372012308DF81D309DF811308DF81E309DF838
S3150801373010308DF81F3006AB16F094FF054610B30E
S31508013740144C1549206829F01CFF1449206829F0F2
S3150801375018FF27F04CFF27F04BFF114B114A009336
S3150801376011497423206829F00CFF10492B46104A89
S31508013770206829F006FF284600F0D2F90D4920688D
S3150801378029F0FFFEFEE709B030BD00BFA000010029
S31508013790C9A6040814330020A1190508D2A60408ED
S315080137A03EA70408D7A60408FFA604080EA704081E
S315080137B00BA7040823A7040834A7040838A7040894
S315080137C010B5274C03F0EAFB03F006FE236F23F03E
S315080137D0070343F00303236728F088FD214B0020E4
S315080137E09B6ADB015EBF4FF480321F4B9A62D4F8A5
S315080137F0203123F0070343F00203C4F82031D4F83B
S31508013800283123F0070343F00203C4F82831D4F81A
S31508013810403123F0030343F00203C4F84031D4F8DE
S31508013820603123F0030343F00203C4F86031D4F88E
S31508013830403223F0030343F00203C4F84032D4F8BC
S31508013840003223F0070343F00203C4F80032D4F828
S31508013850083223F0070343F00203C4F8083210BD07
S31508013860008000500040005A0060005A30B51D4DD6
S315080138709DB008AC0FCD0FC495E80F0084E80F0082
S315080138802C22002111A836F03CFB174B102210936D
S315080138905623129305230124159306230DEB0200E3
S315080138A0002117938DF8454036F02BFB4FF4702015
S315080138B00E4B08AACDE902030B238DF810300C2311
S315080138C08DF811300A4B02A9059320230693094B5B
S315080138D00948009310AB8DF81D4006F095FB1DB005
S315080138E030BD00BF98A904080000015B3C00015BDC
S315080138F07954002078320020F0320020022907D8B6
S31508013900044B1B68186818B1034B01215B6A1847F9
S31508013910704700BFD00A00207832002008B5044954
S31508013920044807F039F9BDE80840FFF79FBF00BF13
S31508013930C80A0020E8320020014829F060BE00BF0D
S31508013940F0320020014B1A6A18681047F03200203D
S3150801395008B5044828F0AAF9BDE80840024828F045
S31508013960A5B900BFB8A90408D0A9040808B5044830
S3150801397028F0CAF9BDE80840024828F0C5B900BFD1
S31508013980E8A9040800AA04087FB500240368464A82
S3150801399023F47F4323F00703934205468DF8084035
S315080139A08DF809408DF80A408DF80B408DF80C40CA
S315080139B08DF80D406DD002F18272934271D1B0F843
S315080139C005301B2B6DD1FF2304A91A4611E9030003
S315080139D027F006FE012814BF41F2FC14334B4FF0C1
S315080139E01B0108BF187004F0FC02287916F050FE76
S315080139F0064610B32E4C2F49206829F0C2FD2E49E0
S31508013A00206829F0BEFD27F0F2FD27F0F1FD2B4BCA
S31508013A102B4A00932B494E23206829F0B2FD2A49E7
S31508013A2033462A4A206829F0ACFD304600F078F87A
S31508013A302749206829F0A5FDFEE71C4B1B78002BBA
S31508013A402FD0287916F0BAFD054650B3184C1949F6
S31508013A50206829F096FD1849206829F092FD27F07B
S31508013A60C6FD27F0C5FD154B154A00931549542384
S31508013A70206829F086FD14492B46144A206829F046
S31508013A8080FD284600F04CF81149206829F079FD97
S31508013A90FEE7064B1B7823B104B0BDE8704029F058
S31508013AA03FBF04B070BD00BFA000060199540020B5
S31508013AB014330020A1190508D2A6040873E60408E0
S31508013AC000E60408FFA604080EA704080BA70408C5
S31508013AD023A70408012208B5074B1A700022074BD1
S31508013AE01A700422064B1A701F22064B1A7006F02A
S31508013AF023FA054B186008BD210D00209A540020B1
S31508013B00220D0020230D002014330020024B034907
S31508013B10186829F036BD00BF143300205B0205087A
S31508013B2070B50C4C0C490646206829F02AFD06F0AA
S31508013B3003FA0546206806F0F3F93046FFF7E6FF73
S31508013B40284606F0EDF920680449BDE8704029F0D9
S31508013B5018BD00BF1433002093E6040895E604084F
S31508013B60202808B515DC032804DC0138012808D902
S31508013B700E200DE00123043803FA00F0084B184221
S31508013B80F6D0012304220921022004F0A9F8002015
S31508013B9008BD4028ECD1012304220821F4E700BF1F
S31508013BA01100001070B5144680220C4B0D461A649C
S31508013BB040EA02010A4828F008FC094E2544AC42AD
S31508013BC004D18022074B00201A6470BD00213046BB
S31508013BD028F0FBFB04F8010BF1E700BF00E00350F6
S31508013BE000000A5000D00350F8B580260D46094C4E
S31508013BF0094F04F500531E6400F07F01384628F08A
S31508013C00E4FB04F580542946384628F0DEFB0020FB
S31508013C102664F8BD00C0035000000A5070B5264C52
S31508013C208EB0264601AD0FCE14340FC50FCC06ADA6
S31508013C300FC594E80F0085E80F00204B0121039377
S31508013C4006AB05934FF480735720ADF81C3002F08C
S31508013C5061FF01213A2002F05DFF002304220321BE
S31508013C60022004F03DF8022100230846012204F04F
S31508013C7037F8002304220121022004F031F8012338
S31508013C8004220721002004F02BF80D4801A903F0AE
S31508013C9017FF0C4B0C4A0020C3F8CC244FF0021234
S31508013CA0C3F8C424A2F58032C3F8C8241C22C3F879
S31508013CB0B4240EB070BD00BF98E60408A05A3200BD
S31508013CC000000A5000C003500200030013B510EEAD
S31508013CD0100A25F031F802460B4600201A4925F04C
S31508013CE0ADF90022194B24F0C7FE25F03FFB9FEDE5
S31508013CF0187A07EE900AF4EEC77AF1EE10FA1FDC8D
S31508013D00F5EEC07AF1EE10FA01D5DFED127AFCEE86
S31508013D10E77ACDED017A9DF8044019202146FFF78F
S31508013D2063FF601C24F0F6FF02460B460020064995
S31508013D3025F084F925F01AFB00EE100A02B010BD31
S31508013D40F0EE477AE3E700BF00408F400000F03FFE
S31508013D5000007F430000000013B5044601211B2023
S31508013D600DF10702FFF71EFF9DF8073003F0180053
S31508013D70102811D005D840B1082809D0012002B071
S31508013D8010BD1828FAD1054B03E0054A2260F6E76B
S31508013D90044B00202360F2E7034BFAE700007A3D63
S31508013DA00000FA3B00007A3C0000FA3C01212DE9AB
S31508013DB0F043002285B08046084627F039FD9FED7D
S31508013DC0760AFFF783FF052027F06DFC002027F010
S31508013DD01AFD6846FFF7C0FF322007F029FB40218C
S31508013DE01A20FFF701FF44216A20FFF7FDFE78211B
S31508013DF02320FFF7F9FE052007F01AFB022172209E
S31508013E0001AAFFF7CFFEBDF804305BBA9BB2B3F542
S31508013E10FC7FF0D34FF000090C27782200212320DC
S31508013E2027F007FC0221722001AAFFF7BBFEBDF8A5
S31508013E3004404D4664BAA4B2B4FBF7F74E464C4665
S31508013E401FFA89F3BB42C0F08A8096FBF7F607EEA4
S31508013E50906A9DED007AF8EEE77A95FBF7F567EE3D
S31508013E60877AC8ED007A07EE905AF8EEE77A94FB5E
S31508013E70F7F467EE877AC8ED017A07EE904AF8EE0D
S31508013E80E77A67EE877A01AAC8ED027A022113203A
S31508013E90FFF788FE9DF904309DF8058001AA0221E5
S31508013EA0152048EA0328FFF77DFE9DF904309DF8A1
S31508013EB0057001AA0221172047EA0327FFF772FEB8
S31508013EC0002E9DF904209DF80530B8BF0336002D54
S31508013ED0B8BF0335002CB8BF033443EA0223A7EB66
S31508013EE0A505A3EBA404A8EBA6062B12C6F3072186
S31508013EF08DF80630132023128DF808308DF804103A
S31508013F008DF805608DF807508DF80940FFF76CFEAE
S31508013F109DF805101420FFF767FE9DF80610152079
S31508013F20FFF762FE9DF807101620FFF75DFE9DF864
S31508013F3008101720FFF758FE9DF809101820FFF7FB
S31508013F4053FE402200216A2027F073FB0022114606
S31508013F50104627F06DFC002005B0BDE8F08301AAE4
S31508013F600C217420FFF71EFE9DF90A209DF80B30DF
S31508013F7009F1010943EA02231E449DF90C209DF823
S31508013F800D3043EA02231D449DF90E209DF80F309A
S31508013F9043EA02231C4453E700007A4437B5044632
S31508013FA000F058F80128054629D104F124010846EC
S31508013FB0019100F0D5F82046019927F069FD04F131
S31508013FC044010846019100F0D9F8D4ED117AF1EED1
S31508013FD0677AC4ED117AD4ED127AF1EE677A204642
S31508013FE00199C4ED127A27F06FFD9FED060A0022AA
S31508013FF02946204603B0BDE83040FEF7DDB803B0D8
S3150801400030BD00BF000000007FB502260F4D1048E5
S315080140102E7027F01BFD27F022FB044680B90DF10F
S31508014020030027F045FC044650B9032301A82B7069
S31508014030FFF7BCFE044618B92E70204604B070BDC1
S3150801404027F0EBFA00232B70F7E700BF9B540020FB
S3150801405020330020014B1878704700BF9B5400207D
S315080140600121022330B51B4D85B0002208462B706D
S315080140708DED010A27F0DCFB9DED010AFFF726FE0F
S31508014080154C082084ED000A27F01DFB032027F0B4
S315080140900AFB002027F0A2FB002027F0B4FB322000
S315080140A007F0C6F90021012027F0DAFB03A827F05B
S315080140B0E5FB94ED000A094827F0E7FC94ED000AB0
S315080140C00648FEF759F8054827F01AFD01232B7013
S315080140D005B030BD9B5400209433002020330020C6
S315080140E01A4AD36B6BB392ED0C6A9FED197A07EEF8
S315080140F0903A26EE076AF8EE677AC6EE276A92EDD7
S315080141000D6AFDEEE66A26EE076A16EE903AC6EEE7
S31508014110276AFDEEE66A038016EE903AD2ED0E6A3C
S3150801412066EE876A86EEA77ABDEEC77A438017EEF2
S31508014130103A838000231363536393630023D36385
S315080141407047038043808380704700BF2033002077
S3150801415000007A440148FFF721BF00BF2033002041
S31508014160054A1278012A04D0002202604260826060
S31508014170704727F0D3BA00BF9B540020054A12782E
S31508014180012A04D00022026042608260704727F04B
S31508014190F5BA00BF9B54002008B5094B1B78012BC3
S315080141A001D0002008BD27F075FB064A13680133C4
S315080141B013600028F5D0044A136801331360F1E748
S315080141C09B540020183300201C3300209FED060A5B
S315080141D000F10C03B0EC017AF1EC017A984207EE92
S315080141E0270AF7D1704700BF000000002DE9F0410A
S315080141F0484C8EB0264601AD0FCE0FC53368143430
S315080142002B6006AD0FCC0FC594E80F0085E80F00AB
S3150801421001213A2002F07EFC0121572002F07AFCA6
S315080142204FF480733C4EADF81C303C4B304603933B
S3150801423001A906AB059303F043FC012304220321DC
S31508014240022003F04DFD022100230846012203F056
S3150801425047FD012304221946022003F041FD0422E9
S3150801426000210123022003F03BFD2D4C2D4B012596
S31508014270C4F8C8344FF00213C4F8C43403F58033C4
S31508014280C4F8CC341C2304F50058C4F8B4344FF4EC
S31508014290487007F0ADFA04F580571420C8F8A05005
S315080142A007F0A6FA2320C7F8A05007F0A1FAB9210A
S315080142B03046C8F8A05028F088F8002303211A468A
S315080142C00220C7F8A05003F00BFD002302211A466D
S315080142D0084603F005FD2B4629460022022003F075
S315080142E0FFFC00222B461146022003F0F9FC30465A
S315080142F003F018FA00215720C4F8C814C4F8C414E6
S31508014300C4F8CC14C4F8B41402F004FC0EB0BDE829
S31508014310F08100BFCCE6040800000A50E070720084
S3150801432000C003500200010008B500F02DF8124B39
S3150801433012498B4212D30020114B12498B4218D3D2
S31508014340FEF796FC186850F82240586840F8224053
S31508014350013298688242F5D30C33EAE70022F8E77E
S315080143601C6844F8220001325C68A242F8D308337B
S31508014370E4E70022F8E700BFC0680508CC6805082D
S31508014380CC680508CC6805084FF480414FF0FF302A
S31508014390114B124A10B59A60D3F8882042F470027C
S315080143A0C3F888200E4A91660E4901F50052106637
S315080143B00D4850660220C3F8D000BFF34F8FBFF3F4
S315080143C06F8F01244FF440330848C0F88041D36009
S315080143D004600B6110BD00BF00ED00E0002001087C
S315080143E00090005000800044F7FF370000E100E02C
S315080143F0014B1868704700BFD80A0020084B1B6F8D
S3150801440003F00703022B04D0032B05D0012B05D09B
S31508014410FEE7044B18687047034BFBE703487047F0
S3150801442000800050D80A0020DC0A0020002D310146
S3150801443008B5FFF7E3FF054B1B6FC3F303330133DE
S31508014440B0FBF3F0024B186008BD00BF00800050B6
S31508014450D40A00200048704700B4C404014B186808
S31508014460704700BFDC0A0020054B1860054B1B6F1F
S3150801447003F00703032B01D1FFF7DABF704700BF2B
S31508014480DC0A00200080005000487047002D3101E9
S315080144904FF0B4439868C0F304400C2822D8DFE8EB
S315080144A000F0092121212121071719211B1D1F00B0
S315080144B00F4870479B6803F04073B3F1807F13D0B0
S315080144C0B3F1007F12D00B4A002B08BF1046704784
S315080144D009487047094870470948704709487047AD
S315080144E009487047002070470848704708487047D0
S315080144F0405DC60000093D000024F400C0EA210120
S3150801450080BA8C010048E801005A620280841E00C4
S3150801451040420F00014B1868704700BFE00A0020AF
S315080145204FF000639B6A10B503F17842B2F5903FEC
S315080145300ED21968094A91420AD1094C227812F019
S31508014540FD0F08D1DB69984708B90123237010BD0F
S315080145504FF48170FBE70020F9E700BF07B0CD5E95
S315080145609C5400204FF00053074A1A60BFF34F8F3F
S315080145700649074BCA6802F4E0621343CB60BFF3EE
S315080145804F8F00BFFDE700BF02020FF000ED00E00C
S315080145900400FA0505490A681318054883428CBFC1
S315080145A04FF0FF320B601046704700BFE40A002047
S315080145B00000042010B40A681378022B11D01420C5
S315080145C03023147913FB040307481B585079C34059
S315080145D0DB4303F00103137008465DF8044BFEF74D
S315080145E08BBE5DF8044B704730C0035037B504687D
S315080145F0012105463A2002F08DFA0023012261794C
S31508014600207903F06DFB14223023217913FB012352
S315080146100E4A9B586279D340DB4303F001032370AA
S31508014620A379022B0ED101F01BFF2A4608496079AE
S3150801463001F040FF0123024661792079CDE9003373
S3150801464003F0F6FA002003B030BD00BF30C00350B6
S31508014650B545010802681378022B24D014213023AA
S31508014660107913FB001310495B585179CB409179A6
S3150801467003F00103012912D1508843EA40034FF69A
S31508014680E07063F03F039BB2834202D111705380FD
S3150801469070474FF6DF718B42F9D10021F6E711B960
S315080146A083F001031370704730C0035010B501221F
S315080146B043780178847830209A40054B00FB013312
S315080146C01CB903F501531A6010BD03F58253FAE7C5
S315080146D000C0035010B50122437801788478302050
S315080146E09A40054B00FB01331CB903F582531A6046
S315080146F010BD03F50153FAE700C0035001224378C0
S3150801470001789A4030235943014B5A50704700BFEC
S3150801471040F00350102130230246007813FB0013A2
S31508014720054950785B58C34003F0010093780BB9EB
S3150801473080F00100704700BF30C00350044B054AA2
S31508014740043850F8041F43F8041B9342F9D1704703
S315080147506400005D7801005D10B5084C237A53B9F1
S31508014760E360074B236001F0FBFB4FF40042054B66
S315080147701A6001232372002010BD00BFE80A002039
S315080147803D47010800E100E0092370B50C460546DE
S31508014790084EC0F8103133690133336127F03FFD04
S315080147A021462846336898470CB127F03AFD002080
S315080147B070BD00BFE80A0020F0B5BDF81850184EC4
S315080147C0099F013D06EA0747C5F3090500EB0114F0
S315080147D03D43A562BDF81C500A9F013D06EA0747FD
S315080147E0C5F309053D43E562BDF814401D03013CC7
S315080147F005F44055C4F309042C43089D13F0040F2E
S3150801480006EA054644EA060401F1020100EB011332
S3150801481018BF44F4804409015C604250F0BD00BFF2
S315080148200000FF0FF8B500210C250446D0F87432B4
S3150801483000F50A76DFF854C0D0F868028B4217DA19
S3150801484005FB030393F8BB20002142F0800283F89D
S31508014850BB20FFF799FF4FF48A72D4F86C3283F0C4
S315080148600103C4F86C3202FB0343C4F86832F8BD8D
S3150801487005FB0107D7F8B82056F804EB02EA0C0243
S3150801488042EA0E02C7F8B8200131D7E70000FFFF58
S315080148904FF0BA4210B5D469136A1C40E1070DD529
S315080148A00121124BD961124B5069196801441960EB
S315080148B091695A680A445A6027F0B5FC620308D51B
S315080148C04FF48022094BDA61094A136803F18073B0
S315080148D01360230308D54FF40022044BDA61044A16
S315080148E0536803F18073536010BD00BF0020005D5B
S315080148F0983300202DE9F04F174687B004460D4638
S31508014900984601F03BFB17F1800F064602D1B8F134
S315080149107F0F04D0A02D11D82544A54202D107B096
S31508014920BDE8F08F94F900309F4202DD277001340B
S31508014930F3E79845B8BF84F80080F8E74FF0000917
S3150801494040F20A2A3B463A460021304627F0F8F952
S31508014950434642460121304627F0F2F94B464A467C
S3150801496049463046CDE90199CDF800A027F053FA1A
S3150801497040F20B232F4A0121CDE90032304640F29D
S31508014980D5122D4BCDF8089027F045FA01212B4B6E
S3150801499040F2D512CDE9013130460221284BCDF836
S315080149A000A027F038FAB5F5006F2B4628BF4FF45B
S315080149B0006323F0030B4FEA5B0A1FFA8AFA2246C1
S315080149C0002130460593CDF800A0052327F001FA0A
S315080149D02246052301213046CDF800A027F0F9F932
S315080149E00223059A002130460093C2F38F02012360
S315080149F0CDF8049027F024FAA5EB0B0501213046E2
S31508014A00FFF7C2FE9F2D5C44CDD845B1254414F964
S31508014A10013B9F4208DD04F8017CA542F7D107B0A6
S31508014A20BDE8F04F27F08AB99845B8BF04F8018C5C
S31508014A30F3E700BF0000A021000102200000B02119
S31508014A40000103302DE9F04F036895B00593436AD9
S31508014A50066D0693836A42680793C36A856B089352
S31508014A60036ED0F814B00993C36DD0F83C900A933D
S31508014A708369DFED576A0B9383680BFB01FA0C9385
S31508014A80036B0D93436C00694B43F41A24EAE474EF
S31508014A90F71A9B1B234453430744AF42A8BF2F462B
S31508014AA0019302FB05F3002502FB00F1119302FBBA
S31508014AB004F30E9713911293059B9D4203DB002085
S31508014AC015B0BDE8F08F00200B9B129E534404934A
S31508014AD0584574DB0199139B01351944DA44019150
S31508014AE0EAE74FF000080C9B734402930D9B63445D
S31508014AF00393904547DB0137964494440E9B9F42A6
S31508014B00EFDBB9F1000F0BD039F81030F2EE677A06
S31508014B1007EE103AB2EE477A77EE277AF3EE677A1E
S31508014B20089BF2EE677A33F81030013007EE103A37
S31508014B30B2EE477A67EE277AF3EE677AF2EE677A8C
S31508014B40FDEEE77A17EE901AADF80830099B19447D
S31508014B50069B9942B8BF1946079B9942A8BF1946B1
S31508014B6007EE901AF8EEE77AF3EE677AF2EE677ACD
S31508014B70FDEEE77A17EE901A049B03F8011B0493DE
S31508014B80119B1E44A4E7029BF2EE677A13F9011BF7
S31508014B9008F101080293039B0F9113F9011B109168
S31508014BA003930F990A9B1944109B594307EE101A50
S31508014BB0B8EEC77A47EE267AF3EE677A99E740F2B6
S31508014BC00003B446274607EE903ADDF804E095E778
S31508014BD0000000382DE9F04F2DED068B436CD1B05E
S31508014BE02993836D05463493436D90ED178A359362
S31508014BF0036DD0F840801C93C36C90F848701093ED
S31508014C008368C66B3693036B2F913793C36A3893C0
S31508014C1040F20003ADF83A318369409300234F937C
S31508014C2001F0B0F904462FB91C9B109A13431CBF17
S31508014C3021234F93349B012B02D1359B012B01D0A4
S31508014C4021234F932F9B4BB1DDE936321343389A13
S31508014C5033431343DB0744BF21234F934F9B2293CF
S31508014C60002B40F092806B6820460E936B69D5ED58
S31508014C70188A0B93EB68BAEEE88A2A936B6BB3EE44
S31508014C80488A1D93EB692B932B6839932B691193EA
S31508014C90AB6B12932B6A139327F0C5F91D9A2A9BBE
S31508014CA0002EA3EB0203109A134493FBF8F34393E4
S31508014CB0DDE91132A3EB02031C9A1344299A93FBEB
S31508014CC0F2F3139A44930B9B02FB03F3129A16937E
S31508014CD00E9B02FB03F31793179A1D9B02FB03F323
S31508014CE0119A2D930E9B02FB03F30E9A2093299B8F
S31508014CF002FB03F34593209B03FB08F34693209B92
S31508014D0003EBD3734FEA630349932D9B03EBD373E9
S31508014D104FEA63034A93179B03EBD3734FEA630383
S31508014D204B93BDF82C30119A189308BF01233F9372
S31508014D300DF59D7318BF33460AEE903A2A9B5343E5
S31508014D400E9A5343139A4C932B9B53430B9A5343F3
S31508014D503E93229B0D9340F2002309EE103A0D9BD8
S31508014D60139A934217DB2F9B7BB126F0E7FF399BFA
S31508014D702B990B985943139B95F92420594395F977
S31508014D8028304143A869FFF7B5FD229851B0BDEC1B
S31508014D90068BBDE8F08F0D9B299A1C995A431C9BDB
S31508014DA01298D31A8A1A22EAE2721492119A14995B
S31508014DB0D21A9042D4BFC1EB0001C1EB0201002B0C
S31508014DC02DDB0D98449E129F9742D8BF30462490FA
S31508014DD0249A0D98121A013209920E9A4A43149985
S31508014DE02C92349A01FB02333C932C9B099903EBD1
S31508014DF0D3735B104793DDE945320129D8BF1346C2
S31508014E00289303EBD3735B10489300230A930A9BF9
S31508014E102B9A934206DB249B01330D939FE70D9A48
S31508014E202492D5E70A9B109A08FB03F3991AD31A19
S31508014E302A9A1D9823EAE373521A9042D4BFC3EB08
S31508014E400007C3EB0207002952DB0A9943981D9E06
S31508014E509642D8BF01462591259A0A99521A239254
S31508014E6001321592239A002A52D0099A012A4FDD56
S31508014E70B8454DD03FDD4FF0010AA8EB070B159A4F
S31508014E80012A07DD0AFB08F20BEB07018A4201D06A
S31508014E9028224F92159A12995245A8BF5246419215
S31508014EA0169A02FB0AF23A92149A01FB03220E9908
S31508014EB04A4315993192099A012AD8BF0A4692B2EC
S31508014EC031993D92379A0A4409EE902A0A9A10991D
S31508014ED002FB08F2521A359903FB01232E9300238C
S31508014EE00F930F9B419A934217DB259B01338DE75D
S31508014EF00A9A2592B0E797FBF8F208FB127B9246CD
S31508014F00BBF1000FBBD002F1010AA8EB0B0BB6E708
S31508014F104FF0010A4FF0000BBCE70F9B159A93421D
S31508014F20C4BF28234F93239B0F9A01339B1A93FBE4
S31508014F30FAF20AFB1233002B18BF0132012A099B28
S31508014F401E9200F02A82012B08DCBBF1000F01D06A
S31508014F5028234F93CDF830B0199706E0CDF830B035
S31508014F600C9B1E9AFB18534319930C9B2E9A013BD3
S31508014F70002B3B93CCBF4FF48773002311990AEE9C
S31508014F80103A3C9B01FB02330E9A139953430A9A32
S31508014F901A930F9B13440D9A01FB03230B9A534350
S31508014FA0219300232693269B399A93420ADB0F9B6A
S31508014FB001330F932E9B43442E9392E700231997AF
S31508014FC00C93D2E73A9BB3F5006F0ADB169B0AF1FD
S31508014FD0FF39B3F5006F01DB28234F93169B1B930B
S31508014FE003E04FF000093A9B1B931E9B209A09FB8D
S31508014FF003334293219B002BBCBF28234F930B9B62
S31508015000002BBCBF28234F931B9B002BBCBF282317
S315080150104F93179B13432D9A13432C9A1343289A9C
S315080150201343319A13431A9A134313F001031F9337
S3150801503000F08081289B209A30932D9B3393179BF0
S3150801504032932C9B204627934D9226F060FF1F9B97
S315080150500126002B0CBF052301234FAAD4F86802A9
S3150801506006924D9ABDF89C100492309A02910392C9
S31508015070BDF86420309101923D9A1A990092369AA8
S3150801508005960A4400214D9326F06AFF4FABCDE9F8
S315080150900563329BBAB20493339B01920393309B07
S315080150A019EE902A0293189B31460093D4F86802A8
S315080150B04D9B26F055FF4FAB01933F9B1AEE902A65
S315080150C000930223D4F86802194626F082FF4FABF3
S315080150D00193189B03210093389A0223D4F8680296
S315080150E026F077FF4FABCDE905630B9B2199049316
S315080150F01B9B409A0393189B0A440293BDF82430DC
S3150801510004210193BDF808310093D4F868023346A7
S3150801511026F026FFB0EE490A0021D4F8680226F0E7
S3150801512036FE1F9B002B40F00E81F0EE480AB0EECA
S31508015130480A3146D4F8680226F033FEB8EEE80A82
S315080151400026B3EE400A0221D4F8680226F01FFEB3
S3150801515020460B994FAA26F09FFE4FAB41212046C8
S31508015160914A019300964EF62C4326F0DCFE204622
S3150801517009994FAA26F090FE20461E994FAA26F0B5
S315080151808BFE394620464FAA26F086FE20462799E9
S315080151904FAA26F081FE4FAB40F2CD112046CDE94C
S315080151A00063824A824B26F0BEFE4FAB40F2D7110E
S315080151B0804A2046CDE90063334626F0B4FE2046F0
S315080151C026F019FF02223146204626F030FF022238
S315080151D00121204626F02BFF204626F00CFF099BCD
S315080151E0012B04DC01223146204626F020FF0C9BC8
S315080151F0002B04DD02220021204626F018FF1F9B02
S31508015200002B40F0A8800C9B4A21023B1B934FAB15
S3150801521001931F9B20460093674A1AEE103A26F01F
S3150801522082FE1B9B4FAE013B1F931B9B40F2CD1188
S31508015230002B4FF04F6320460093604ACCBF4FF4D2
S3150801524087730023019626F06EFEB9F1000F0FDD74
S3150801525032464946204626F01FFE00222046CF2325
S3150801526011460196009226F05EFE204626F0C3FE00
S315080152704FF000094FAE4B46412120464A4A019656
S31508015280CDF8009026F04FFE1F9B012B66D11946DB
S315080152903246204626F000FE4B464A4649462046F7
S315080152A0CDE9009626F03FFE204626F0A4FE02220E
S315080152B04946204626F0BBFE204626F09CFE0222E1
S315080152C00421204626F0B3FE099B012B04DD0122A9
S315080152D00021204626F0ABFE204626F08CFE04224D
S315080152E02046114626F0A3FE01222046114626F045
S315080152F09EFE04220221204626F099FE042203215D
S31508015300204626F094FE204626F075FE4F9B002B7C
S3150801531041D12F9B13B12046FFF784FA269B4C9A5D
S31508015320013326931A9B13441A933E9A219B1344DD
S31508015330219338E6489B3093DDE9492333934B9B08
S315080153403293479B7EE6B0EE480A3146D4F86802A6
S3150801535026F01DFDF2E63B9B1B9362E7ACDD1B9B2A
S315080153603246991E204626F097FD324620460121EF
S3150801537026F092FD4A4649464B462046CDE9009617
S3150801538026F0D1FD204626F036FE02224946204661
S3150801539026F04DFE88E72293F7E4012B7FF70EAE40
S315080153A000230C93DCE500BF0000045006000160F1
S315080153B00E7E080006070550000005500503027019
S315080153C02DE9F04F2DED048B82468BB028B92120AB
S315080153D00BB0BDEC048BBDE8F08FC16A0029F6D18C
S315080153E0036A9FEDCA9A13F0010F14BF4FF4806246
S315080153F04FF400629A42C0F2DE80049100F0BEFDCD
S31508015400DAE90F7BDAED057AB8EEE78ABAF85030B1
S31508015410DAF8208008EE903A0BFB07F318F001053D
S3150801542028EE098A044609EE103ADAF84C900499EE
S31508015430BFB240F0CE8108EBD8764FEA6608C6F3CC
S315080154404F06CDE9007605232946DAF8002026F02D
S31508015450D0FC1FFA8BF3009305230196DAF818207E
S315080154600121204626F0C5FCDAF83020002A00F092
S315080154709A80BAF8343000930223194620461FFA57
S315080154808BF626F0A6FCCDE900760123DAF838205A
S315080154900321204626F0ADFCDFED9C0A0021B0EE83
S315080154A0600A204626F087FCF0EE480AB0EE480A64
S315080154B00121204626F07FFCB0EE680A032120462A
S315080154C026F065FC4A460421204626F050FC4FF09A
S315080154D0000940F22D234A46494620460093CDE964
S315080154E001994B4626F097FC894B40F2D7120121C8
S315080154F020460093CDE90199864B26F08CFC40F2B3
S31508015500D71202212046CDE90199834BCDF80090A7
S3150801551026F081FC002D4BD14A2203212046CDE9F4
S3150801552001557E4B009526F076FC4FF004090025BF
S315080155304FF0010B7A4B5FFA89F940F2D7124946C7
S315080155402046CDE9013B0095764B26F064FC2B46B7
S315080155503A4629462046CDE9009526F071FC42F2E5
S315080155600203324659462046CDE900932B4626F0DA
S3150801557067FC022120231FFA88F2CDE90013204691
S315080155805B4626F05DFC59462046FFF7FDF819EE05
S31508015590101A9AF953309AF95220DAF83800FFF7B7
S315080155A0A9F9002014E701235F4A0093022364E75F
S315080155B04FF00309BBE7069100F0E0FCDAED057A46
S315080155C0F8EEE78ABAF85030054668EE898A08EE99
S315080155D0103ADAF83C30DAF84C20DAF82040089329
S315080155E0DAF84030F0EE490AB0EE490A0699059212
S315080155F00493099426F0DFFBF0EE680AB0EE680A18
S315080156000121284626F0D7FB03212846B0EE480A91
S3150801561026F0BDFB04F0010604212846059A26F06A
S31508015620A6FB16BB4FF0050804EBD47464104FF0C3
S31508015630010B0027B4F5806F1ADC354B40F2D712FF
S31508015640002128460093CDE90177324B26F0E3FB8A
S3150801565040F2D71201212846CDE901772E4B009752
S3150801566026F0D9FBD6B1022122E04FF00108DEE788
S3150801567000232E4810F8011B94FBF1F201FB124C92
S31508015680BCF1000F06D1944201FB0BFB3FF49FAE20
S315080156901446CFE701330B2BECD198E602214A22B7
S315080156A02846CDE901661D4B009626F0B4FB032179
S315080156B0002601271A4B40F2D7122846CDE90137B1
S315080156C00096184B1FFA8BFB26F0A5FB33465A4664
S315080156D031462846CDE9007626F0B2FB2223A4B24C
S315080156E0CDE90073224633463946284626F0A8FBFB
S315080156F0CDE90566089BB34268DC089904989AF9CE
S31508015700533041439AF9522047E700BF0000003859
S315080157100E7E0800060001600607055000000550C8
S315080157200000D023050304505CE7040850E7040889
S31508015730069BDAF8002007991A44DAF818300B4460
S3150801574008EE903ADAF83030002B3CD033F81730AF
S3150801575008EE103A059B002107EB0309DAF8383001
S3150801576028469944CDE900B4434626F042FB434610
S3150801577018EE902A01212846CDE900B426F039FB16
S3150801578001234A4600930321284626F022FBB0EE60
S31508015790480A0521284626F0FAFA01212846FEF785
S315080157A0F3FF079B099A013713440793049BBB42EE
S315080157B0BEDCDDE9042313440593099A069B0136E9
S315080157C01344069396E740F20003C1E700270797BB
S315080157D0ECE71FFA88F6CDE900760123DAF800200E
S315080157E026F007FB1FFA8BF300930196012335E692
S315080157F058B1031F9FED137A0020DFED136A9FED61
S31508015800136A01EB4202914200D17047D3ED017A46
S31508015810F8EEE77A67EE877AF4EEE67AF1EE10FAB1
S3150801582003F104030CDCF4EE467AF1EE10FA48BFF4
S315080158302120F3EE677A17EE90CA21F802CBE2E748
S315080158402120F6E70000003800E07F4700E07FC727
S3150801585070B560B3026AD30755BF4FF400614FF4C0
S31508015860806102EBD273134658BF5B1091421FDA6F
S3150801587001220DE00021194E16F8015B93FBF5F4A0
S3150801588005FB143068B9A34205FB02F20DD0234685
S31508015890B3F5806FEEDCB2F5806FCCBF0020012036
S315080158A003E001310B29E7D1002000F0010070BDAA
S315080158B0C36B013BB3F5806F0DD2036C013BB3F5A6
S315080158C0806F08D2002A06DD406BB0F5806F8CBF69
S315080158D000200120EBE70020E9E700BF50E70408B4
S315080158E02DE9F04F2DED048B0368C3B03293C368DD
S315080158F090ED098A1F930369D0ED088A0E9383698F
S31508015900D0F804A02A93C36990F838502093036C01
S3150801591028911293C36B0F93D0E90C932193C36A11
S315080159202293836A239383682B9343692C930023D9
S31508015930419300F027FB04462DB9129B0F9A134396
S315080159401CBF21234193289B33B1DDE92B32134335
S31508015950DB0744BF21234193419B1793002B3ED17B
S31508015960204626F060FB239A1F9B9B1A0F9A134425
S3150801597093FBF9F3229A34930E9B9B1A129A1344BA
S31508015980219A93FBF2F33593209B0AFB03F31593B4
S315080159900E9B0AFB03F316930AFB02F33693169B37
S315080159A0169A09FB03F337930E9B09FB03F30AFBCC
S315080159B003F33C931F9B5343159A39932A9B5343ED
S315080159C03D93179B0B934DF6000309EE103A0B9B7B
S315080159D0209A934209DB289B0BB126F0AFF9179859
S315080159E043B0BDEC048BBDE8F08F219A0B9B22993D
S315080159F05343129A9A1A2492129AD31A23EAE373F0
S31508015A00249A13930E9B9B1A139A9942D4BFC2EBFD
S31508015A100102C2EB03022D92249A002A1ADB359A57
S31508015A200B9922989842C8BF0A461A920B9A1A9B52
S31508015A309B1A03F10108DDE93632B8F1010FD8BF27
S31508015A401346299300232A9A934206DB1A9B0133AC
S31508015A500B93BCE70B9B1A93E8E709FB03F20F9933
S31508015A60239D501A8A1A1F9922EAE272091A8D424F
S31508015A70D4BFC2EB0505C2EB01050028099560DB19
S31508015A803498239D8D42C8BF18461B901B99C91A85
S31508015A901891013110911899002962D0B8F1010FB6
S31508015AA05FDD0999894500F01D824CDD4FF0010B38
S31508015AB0A9EB01051099012907DD0BFB09F10998E5
S31508015AC02844814201D02821419110990BF1FF30D8
S31508015AD05945A8BF5946339115990F9E01FB0BF1FC
S31508015AE0B1F5006FB8BF00201E9001303A901098AA
S31508015AF0B8F1010FC8BF404680B2309003FB09F0E8
S31508015B00801B0244249E139830440E9E06FB020213
S31508015B100AFB02F2209827920B9A03FB00230AFB41
S31508015B2003F32693159BB1F5006FA8BF1946002309
S31508015B301D910D930D9B339A934216DB1B9B0133E3
S31508015B4081E71B93A2E70999099891FBF9F109FBEA
S31508015B5011058B46002DADD001F1010BA9EB050509
S31508015B60A8E74FF0010B0025AFE70D9B109A93426A
S31508015B70C4BF28234193189B0D9A01339B1A93FBA3
S31508015B80FBF20BFB1233002B18BF0132012A1492C8
S31508015B9000F0A181B8F1010F05DC0DB1282341936D
S31508015BA0099B0A9505E00A95DDE909321344149A19
S31508015BB053431193149B3A9A53439BB23193269BB1
S31508015BC01993279B259300231C931C9B329A934276
S31508015BD080F27381002341E1099B119300230A9303
S31508015BE0E8E7199A0C9B9B182F9344BF28234193E6
S31508015BF0BAF1000FBCBF282341931D9B259A002BA0
S31508015C00BCBF282341930C9B9F180133534580F24F
S31508015C103681169B4AEA0306299B1E431D9B1E4392
S31508015C202F9B1E433E43F64306F00106731C3B9326
S31508015C309AFBF3F32E93169B721C93FBF2F2299BA4
S31508015C403F92721C93FBF2F11D9B204693FBF2F3E4
S31508015C503E91389326F05BF9002E0CBF01230523EC
S31508015C602E9AD4F8680205923F9A3E990492BDF895
S31508015C70B42041AE0292BDF8442003910192309AB4
S31508015C80002100922B9A06963A443E9326F068F92B
S31508015C902E9B00270493389B1FFA88F2039301234E
S31508015CA00293319B2C9901922F9A00930696059798
S31508015CB00A443E9B0121D4F8680226F051F94DF6B3
S31508015CC00003F0EE490A00EE103A3946D4F86802A4
S31508015CD026F067F8F8EEE80AF3EE600A0321B0EE5B
S31508015CE0600AD4F8680226F05CF8F8EEC80AF3EE02
S31508015CF0600A0421B0EE600AD4F8680226F051F869
S31508015D0032464146204626F0C7F8324620461499BF
S31508015D1026F0C2F83B464FF0805241212046CDE994
S31508015D20007626F000F932462046099926F0B4F89D
S31508015D30324620462D9926F0AFF840F20A2340F262
S31508015D4053116A4A2046CDE9007626F0ECF820463A
S31508015D5026F051F902223946204626F068F92046EE
S31508015D6026F049F9B8F1010F04DC0122394620462B
S31508015D7026F05DF90A9B002B04DD0222002120464C
S31508015D8026F055F90A9B41AA012BA3F102064FF009
S31508015D901D6340F2D511CDE900322046CCBF4FF440
S31508015DA085730023524A26F0BEF81E9B002B1DDD83
S31508015DB041AF19463A46204626F06EF83A46012181
S31508015DC0204626F069F8002320461A46194600930C
S31508015DD0019726F0A8F8204626F00DF9012220465B
S31508015DE0114626F024F9204626F005F9002E17DD7E
S31508015DF0012E41AA45D13146204626F04DF800210B
S31508015E0041AB01930A460B462046009126F08BF8D2
S31508015E10204626F0F0F802220021204626F007F94E
S31508015E20204626F0E8F802220121204626F0FFF84E
S31508015E30B8F1010F04DD01220021204626F0F7F80A
S31508015E40204626F0D8F8419B002B42D1289B13B156
S31508015E502046FEF7E7FC0C9B3B9A13440C930C9BDC
S31508015E605345FFF6BEAE1C9B399A01331C93259BFD
S31508015E70134425933D9A199B13441993A5E60026C5
S31508015E80D4E60A9B2046D91E26F006F8204641AAE2
S31508015E90012126F001F8002141AB0A46009120466E
S31508015EA001930B4626F03FF8204626F0A4F8022275
S31508015EB00021204626F0BBF8AAE70D9B3C9A013340
S31508015EC00D93279B13442793159A269B13442693D0
S31508015ED030E6179383E5B8F1010F7FF77DAE00230E
S31508015EE00A9361E600254FF0010BEEE50200011069
S31508015EF0030401504FF08042074B01219A664FF087
S31508015F00BA4303F58052516001F540211162034AF3
S31508015F101268DA60704700BF00900050FC0A002042
S31508015F200B4B9B6E580011D54FF0BA435A68D107EF
S31508015F300CD5D968074A11600121074A51605A6888
S31508015F409207FCD44FF08042044B9A66704700BF13
S31508015F5000800050FC0A00200020005D00A00050CF
S31508015F6008B50449044804F017FEBDE80840FFF7E0
S31508015F70C1BF00BF60E70408A0330020004870478E
S31508015F80A833002000487047A83300202DE9F04FB8
S31508015F909A46564B85B01B7806460F461546DDF8D8
S31508015FA03C909DF844B0DDF85080002B00F08D80C0
S31508015FB0072A00F28C800E9B002B00F08880B9F12D
S31508015FC0000F00F08480129BB3F5006F7FDC012877
S31508015FD002D1109B002B7AD0454B03EB05131B7B93
S31508015FE0002B76D0434C10220021684633F089FFF6
S31508015FF004EB45141022002F59D13946204633F0B7
S3150801600080FF43F210036380BBF1000F03D1E378ED
S3150801601043F00303E370374A0E9B02EB451CCCE9B8
S315080160200193129B6901013BC3F30A009DF84C30A9
S31508016030012E03F003034FEA836343EA001E535814
S315080160402D48CDF800A000EA03004EEA000353509C
S3150801605041D113230CF1100ECCF80C309CE80F003B
S315080160608EE80F006FF00301DCF81C20109B61F32A
S315080160709F02012FCCF81C20CCF8143003D1CCF8A0
S315080160801890CCF804300027194A290102EB0513A8
S3150801609042F80180159A28465A60694622469F6049
S315080160A05E7301F0BBFE384605B0BDE8F08F0021EE
S315080160B0204633F026FF4FF444736380BBF1000F8B
S315080160C0A9D1E37843F03003A4E70C48ECE70C4880
S315080160D0EAE70C48E8E7B8F1000FD4D19CF802309A
S315080160E068F304138CF80230CDE700BF9D540020F5
S315080160F024360020A43600200F80FFF3028000F02A
S31508016100018000F0078000F038B5124B05461B7870
S31508016110DBB1E0B126F006F90F4A00231146147BDC
S3150801612054B92B6001251A0101EB03131D738C5019
S3150801613026F0FEF8204638BD0133082B02F110027D
S31508016140EDD126F0F5F80548F5E70548F3E70548E2
S31508016150F1E700BF9D54002024360020048000F09A
S31508016160028000F0018000F013B526F0DBF8002369
S315080161700B4A147B7CB90133082B02F11002F8D1C2
S31508016180019001F0EDFD074B01981C7026F0D0F83F
S31508016190204602B010BD26F0CBF80348F9E700BF48
S315080161A0243600209D540020058000F00D4B10B5C3
S315080161B01B78044693B1072812D826F0B3F80A4B80
S315080161C003EB04131A7B2AB100241C7326F0B0F8DA
S315080161D0204610BD26F0ACF80448FAE70448F8E76B
S315080161E00448F6E79D54002024360020068000F076
S315080161F0028000F0018000F0154B13B518680023E2
S3150801620001908DF8043026F08DF8124B1C7824B1D4
S3150801621026F08EF8104802B010BD01221A7026F039
S3150801622087F80E4B01A81C731C7783F82C4083F85A
S315080162303C4083F84C4083F85C4083F86C4083F813
S315080162407C4008238DF8073001F0B6FD2046E2E7C9
S3150801625068E704089D540020038000F024360020D6
S315080162600A4A08B512785AB107280BD8084A02EB28
S3150801627000131B7B43B1002101F090FD002008BDEE
S315080162800448FCE70448FAE70448F8E79D54002067
S3150801629024360020028000F0018000F0078000F01B
S315080162A00A4A08B512785AB107280BD8084A02EBE8
S315080162B000131B7B43B1012101F070FD002008BDCD
S315080162C00448FCE70448FAE70448F8E79D54002027
S315080162D024360020028000F0018000F0078000F0DB
S315080162E00A4A08B5127852B107280AD8084A02EBB1
S315080162F000131B7B3BB101F0DFFD002008BD0548FB
S31508016300FCE70548FAE70548F8E700BF9D54002071
S3150801631024360020028000F0018000F0078000F09A
S315080163200D4B1B7893B1072812D889B10B4B03EB98
S3150801633000131B7B73B10A4B1A6D012303FA00F094
S3150801634010401ABF00200B70087070470548704747
S3150801635005487047054870479D540020243600209B
S3150801636000000450028000F0018000F0078000F070
S315080163700B4A10B512780C4662B107280CD859B1E8
S31508016380084A02EB00131B7B43B101F0A7FD2070FD
S31508016390002010BD0448FCE70448FAE70448F8E77A
S315080163A09D54002024360020028000F0018000F070
S315080163B0078000F02DE9F843174B1F6D5B6D1F40F1
S315080163C000D5FEE701260025144CDFF85480DFF8D6
S315080163D05490374217D02368C8F850609BB1A1681A
S315080163E0284601316268A1609847637B012B0AD16F
S315080163F048B909EB45131A7B60F341021A731A7FF0
S3150801640060F341021A770135082D4FEA460604F171
S315080164101004DED1BDE8F8830000045024360020BC
S3150801642000200450A436002070B5044601250B4E01
S3150801643004B970BD94FAA4F0B0FA80F005FA00F335
S3150801644006EB001224EA03045368002BF0D0117BF3
S3150801645011B191689847EBE79847E9E7A437002017
S3150801646008B5192000F0DAFF28B14FF00072074B82
S31508016470C3F880211A601A2000F0D0FF28B14FF026
S315080164808062024BC3F880211A6008BD00E100E072
S3150801649038B505460C4625F045FF0022044B03EBAB
S315080164A005135C601A73BDE8384025F041BF00BF8B
S315080164B0A4370020F8B505460F46164625F032FFE3
S315080164C0104B05F0FC02D3F824140023EC1804F051
S315080164D00304144321FA04FC1CF0010F07D001330D
S315080164E0042BF3D1FF2425F023FF2046F8BDFF2C0A
S315080164F0F9D00122044B03EB0413C3E901761A739D
S31508016500F1E700BF00C00350A4370020074BD3F8BA
S315080165102404D3F8202403F50053104000F0553025
S3150801652020F05020C3F82004FFF77EBF00C00350B7
S31508016530074BD3F82404D3F8202403F5005310405D
S3150801654000F0AA3020F0A020C3F82004FFF76CBFA2
S3150801655000C00350024B1968024B18681AF070BF45
S31508016560040B0020000B002037B5920004460D46A7
S31508016570019233F091FE431C0BD060B9294620469F
S31508016580019A33F087FC0028044808BF002003B0AD
S3150801659030BD0348FBE70348F9E700BF10E000F008
S315080165A021E000F024E000F013B5044601A801F04B
S315080165B0CFFC9DF80630012223804FF4807300201A
S315080165C06380054B9B680A3303F01F0302FA03F342
S315080165D0636002B010BD00BF0080E00F10B504462D
S315080165E033F062FE431C15D0B0B90C4B20469B68AC
S315080165F00A3303F01F020123934023F003032344C4
S31508016600984201D1002010BD50F8042B0132F7D071
S315080166100348F8E70348F6E70348F4E70080E00F84
S315080166200EE000F021E000F024E000F008B525F0C6
S3150801663072FE014B186008BDE43F0020014B186843
S3150801664025F06DBEE43F0020044BD3F88420D20622
S31508016650FBD4D3F88400C0F3811070470040005082
S3150801666038B5104B0546D3F880300C4603F00303C2
S31508016670022B0BD0032B0DD0012B0FD1FDF7BEFE3C
S315080166800E2305B1286004B1236038BDFDF700FF6C
S315080166900723F6E7FDF7ACFE0623F2E700231846C3
S315080166A0EFE700BF0080005038B5174B0546D3F811
S315080166B020310C4603F00703013B052B20D8DFE800
S315080166C003F0030B130F171BFDF792FE052305B104
S315080166D0286004B1236038BDFDF7C0FE0323F6E741
S315080166E0FDF7D6FE0723F2E7FDF7CEFE0223EEE716
S315080166F0FDF77EFE0623EAE7FDF7B0FE0423E6E78B
S3150801670000231846E3E700BF0080005038B5174B51
S315080167100546D3F828310C4603F00703013B052B40
S3150801672020D8DFE803F003131B0F0B17FDF760FEF4
S31508016730052305B1286004B1236038BDFDF758FE6D
S315080167400623F6E7FDF7A4FE0723F2E7FDF786FE23
S315080167500323EEE7FDF782FE0423EAE7FDF794FE3D
S315080167600223E6E700231846E3E700BF008000504E
S3150801677073B50D460021114B0191D3F880410646A8
S3150801678004F00304022C13D0032C0CD0012C13D1D2
S3150801679001A8FFF789FF10240EB1019B336005B1EB
S315080167A02C6002B070BDFDF773FE07240190F3E774
S315080167B0FDF76AFE0190EFE70C46EDE70080005011
S315080167C0002337B50193154B0546D3F820320C46FD
S315080167D003F00703013B032B1ED8DFE803F0020E83
S315080167E01318002101A8FFF791FF12230DB1019A91
S315080167F02A6004B1236003B030BDFDF749FE0723C3
S315080168000190F3E725F03BFA0A230190EEE7FDF73D
S3150801681081FE09230190E9E70023E7E7008000509C
S3150801682038B5104B0546D3F840310C4603F003033F
S31508016830022B0BD0032B0DD0012B0FD125F01FFAFC
S315080168400A2305B1286004B1236038BDFDF762FE4D
S315080168500923F6E725F016FA0C23F2E70023184672
S31508016860EFE700BF00800050002337B50193164BB0
S315080168700546D3F860320C4603F00703013B032BA8
S315080168801FD8DFE803F0020E1914002101A8FFF74B
S315080168900BFF10230DB1019A2A6004B1236003B0DE
S315080168A030BD002101A8FFF7BBFF1123F2E7FDF771
S315080168B0EFFD07230190EDE7FDF7E6FD02230190C1
S315080168C0E8E70023E6E700BF00800050002337B55C
S315080168D00193164B0546D3F894320C4603F0070389
S315080168E0013B032B1FD8DFE803F0020E1914002120
S315080168F001A8FFF7D9FE10230DB1019A2A6004B148
S31508016900236003B030BD002101A8FFF789FF1123D9
S31508016910F2E7FDF7BDFD07230190EDE7FDF7B4FDAD
S3150801692002230190E8E70023E6E700BF0080005054
S3150801693038B5134B0546D3F800320C4603F0070366
S31508016940013B032B18D8DFE803F0020A0E1225F0E3
S3150801695096F90A2305B1286004B1236038BDFDF70D
S31508016960D9FD0923F6E725F08DF90C23F2E7FDF7A2
S315080169705FFD0F23800AEDE700231846EAE700BF0B
S315080169800080005038B5134B0546D3F808320C463B
S3150801699003F00703013B032B18D8DFE803F0020ACB
S315080169A00E1225F06CF90A2305B1286004B123609B
S315080169B038BDFDF7AFFD0923F6E725F063F90C238A
S315080169C0F2E7FDF735FD0F23800AEDE700231846A8
S315080169D0EAE700BF0080005038B5104B0546D3F8EA
S315080169E040320C4603F00303022B0BD0032B0DD0C8
S315080169F0012B0FD125F043F90A2305B1286004B10B
S31508016A00236038BDFDF786FD0923F6E725F03AF937
S31508016A100C23F2E700231846EFE700BF0080005079
S31508016A2038B5104B0546D3F860310C4603F003031D
S31508016A30022B0BD0032B0DD0012B0FD125F01FF9FB
S31508016A400A2305B1286004B1236038BDFDF762FD4C
S31508016A500923F6E725F016F90C23F2E70023184671
S31508016A60EFE700BF00800050B0F5207F1FD009D89E
S31508016A70B0F5007F15D003D868B1B0F5C07F0AD04C
S31508016A8000200CE0B0F5607FFAD10B4BD3F88000FB
S31508016A90C0F3011003E0084B186FC0F3033001304F
S31508016AA07047054BD3F89000C0F30460F7E7024B33
S31508016AB0186FC0F38020F2E70080005002464FF4B9
S31508016AC08030104B10B598660020FFF7CDFF504374
S31508016AD041F671320C4BDC69DA635A6804F4803486
S31508016AE022F4401259B9094988428CBF4FF48010E3
S31508016AF00020104358600CB10022DA6310BD044926
S31508016B00F2E700BF0090005000000350005A6202ED
S31508016B10002D3101430905D0012B0DD0022B094B5C
S31508016B2018BF002300F01F0041B103F5805301226D
S31508016B3002FA00F018607047034BF3E703F50053B8
S31508016B40F5E700BF68800050648000501FB500213A
S31508016B5080280446CDE9001100F0A58035D85E28C5
S31508016B6046D85E2844D8DFE800F0A24343434343AE
S31508016B7043434343434343434343434343434343D6
S31508016B8043434343434343434343A2AAA2AAB9B94E
S31508016B90B9B9B9AAC34DD9714DAAAAAA4343434360
S31508016BA043434343AAAAAA79E3AA43434343434334
S31508016BB043434343434343B9A2A2A2DE4D4DE8886A
S31508016BC05EBE434343434399A200B0F5B06F00F05C
S31508016BD08F802DD8B0F5207F71D00CD8B0F5C07F45
S31508016BE065D0B0F5007F65D0B0F5807F00F085806F
S31508016BF0009804B010BDB0F5607F6AD00DD8B0F525
S31508016C00407FF5D1FDF714FC02464FF42070FFF7DB
S31508016C102BFFB2FBF0F0400847E0B0F5806F5DD07E
S31508016C20B0F5A06FE4D100216846FFF7C9FDDFE79B
S31508016C30B0F5106F77D016D8B0F5E06F78D00AD8CE
S31508016C40B0F5C06F6AD0B0F5D06FD1D100216846D2
S31508016C50FFF76EFECCE7B0F5F06FC9D100216846A3
S31508016C60FFF7DEFEC4E7B0F5406F3CD013D8B0F5A8
S31508016C70206F62D0B0F5286FBAD10021314B03914C
S31508016C80D3F8703203F00303012B02D103A8FFF7EF
S31508016C90C7FD039B3BE0B0F5486FA9D100216846C3
S31508016CA0FFF714FEA4E7FDF7A9FB0090A0E7FDF79F
S31508016CB0BFFBFAE7FDF7A2FB0246204604E0FDF713
S31508016CC0B7FB02464FF42070FFF7CEFEB2FBF0F099
S31508016CD0EBE701A8FFF7C4FC019AEEE70021684635
S31508016CE0FFF7E2FC84E700216846FFF70FFD7FE71F
S31508016CF000216846FFF73CFD7AE74FF0E023029151
S31508016D001B695B0705D5FDF793FB0290029B009370
S31508016D106EE703A902A8FFF783FDF7E70021684696
S31508016D20FFF77EFD64E700216846FFF72BFE5FE764
S31508016D3000216846FFF750FE5AE700216846FFF72B
S31508016D4093FD55E70080005008B58020FFF7FEFE49
S31508016D50034B98429EBF4FF48032024B1A6708BD17
S31508016D60005A620200A000501FB50023B0F5807FCB
S31508016D70019300F0C38064D85D2855D84C2807D8FC
S31508016D802D2847D823282BD8019805B05DF804FB90
S31508016D904D381028F8D801A353F820F0F36E0108EE
S31508016DA0896D0108896D0108896D0108A56E0108BB
S31508016DB0896D0108896D0108796F0108C36E01089B
S31508016DC0696E01086F6F0108896D0108896D0108EF
S31508016DD0896D0108896D0108896D0108836F0108AC
S31508016DE024380928D0D801A353F820F0F36E0108F6
S31508016DF0F36E0108F36E0108F36E0108F36E0108DC
S31508016E00896D0108E96E0108896D0108856E010819
S31508016E10296F01083D2800F082803E28B4D1002060
S31508016E2001A9FFF7D9FDAFE78028ADD15A4B1B6FF2
S31508016E3003F00703013B032BA6D8DFE803F0535001
S31508016E40878FB0F5F06F6AD021D8B0F5B06F4BD007
S31508016E500FD8B0F5607F00F0858095D3B0F5806FC7
S31508016E6047D0B0F5A06F8FD1002001A9FFF7A8FC84
S31508016E708AE7B0F5D06F57D0B0F5E06FCFD0B0F54F
S31508016E80C06F81D1002001A9FFF7CAFC7CE7B0F5E4
S31508016E90206F71D00BD8B0F5086F4AD0B0F5106FD6
S31508016EA07FF472AF002001A9FFF76CFD6CE7B0F51E
S31508016EB0406F5CD0B0F5486F63D0B0F5286F7FF4AA
S31508016EC063AF0021344B0391D3F8703203F0030307
S31508016ED0012B5BD0022B14BF0B46152300E00523BB
S31508016EE0019351E70223FBE7002001A9FFF740FCC4
S31508016EF04AE7002001A9FFF7D7FB45E702934FF0C0
S31508016F00E0231B695B0705D5FDF792FA0D23039369
S31508016F10039BE5E703A902A8FFF782FCF8E700202F
S31508016F2001A9FFF77DFD2FE7002001A9FFF700FD65
S31508016F302AE7194BD3F8003103F00303022B07D0D4
S31508016F40032B09D0012B0BD1FDF788FA0323C7E7D9
S31508016F50FDF7E0FA0923C3E724F08FFE0823BFE70C
S31508016F600123BDE7184601A9FFF77AFB0CE70020C4
S31508016F7001A9FFF7CBFB07E7002001A9FFF774FC7E
S31508016F8002E7002001A9FFF7A1FCFDE603A8FFF728
S31508016F9047FC1123A4E700BF008000504FF480127C
S31508016FA0034B5A664FF48032024B9A62704700BF10
S31508016FB0009000500050005A08B5FFF7D5FE092881
S31508016FC011D00A38012811D84FF48002094B4FF61F
S31508016FD0FF705A6603F5D8335B6A13F0010F18BFC1
S31508016FE04FF4FA7008BD044B1888FBE74FF6FF709B
S31508016FF0F8E700BF00900050060D002038B504469A
S315080170008020FFF7B1FE032800F083804FF4801239
S31508017010504B4FF0A0615A6645F60E034E4AC2F828
S3150801702080304E4B99624FF4803103F58053996253
S31508017030916D11F48031FBD1D4E900031B0543EAB4
S315080170400063E07B0343207B43EA0043607B43EA1A
S315080170500033A07B43EA801313619069D4E9045392
S315080170601B0643EA856300F000400343A07EE57EE4
S315080170700343207E43EA0043607E43EA002393618B
S31508017080E069136A00280CBF0022082223F00F03C7
S3150801709043EA000343EA850343EA02032E4A304DD5
S315080170A0136237D194F82430916A94F82000DB00F2
S315080170B00D4043EA401394F821102B4343EA011388
S315080170C043F480339362274B916D33EA0101FBD177
S315080170D04FF08071214881621369A56823F4700312
S315080170E043EA055313614FF00043836194F8223054
S315080170F00BB91D4B996294F823301BB94FF48032B2
S31508017100194B9A6294F825301BB1134B174AC3F8E9
S31508017110802038BD022808D11161154891614FF4C4
S3150801712008524FF47F4125F0BDF80B4994F82230F7
S315080171308A6A94F820001B06154043EA401394F81E
S3150801714024202B4343EAC20394F8232043EA02434B
S315080171508B62D7E7009000500040005A0050005A51
S31508017160C7FFFEFE030001000060005AF1A7FFFFFA
S315080171703440005A37B5194CA26AA36D13F4803FFF
S3150801718018BF4FF48031164B18BF99624FF08071C2
S315080171909962144BA56993F9003025F47F050344D8
S315080171A0000280B225F47F4583F30803284340EAA9
S315080171B00340A0610C48019225F074F8A36D019A69
S315080171C013F4803F07D04FF48031074803B0BDE878
S315080171D0304025F067B803B030BD00BF0040005A03
S315080171E00050005A240D00202840005A014B93F9FB
S315080171F000007047240D0020F0B5D0E901434FF493
S3150801720000061A4A4178057856664FF4D156022780
S3150801721002F5B8325662164E4F2977604FF00107CC
S3150801722028BF4F2106F5805677601669F603FCD408
S3150801723041EA052151611B01417B43EA04230B43C2
S31508017240017B43EA41039360C37B817B1B0143EACC
S315080172504113417C0B43017C43EA41035360837C20
S3150801726013B16FF4D1535362F0BD00BF00900050C3
S3150801727000100250014B1880704700BF060D002010
S315080172804FF4800208B5184B5A660223174A536011
S31508017290936813F48033FBD1012822D1FDF7DEF878
S315080172A0134B984215D003F5122303F5F863984258
S315080172B013D0104B00EB8002400AB3FBF0F0520AE0
S315080172C00A4BDA62012218635A620022074B5A6096
S315080172D008BD45F67A10084AF2E745F61A00074A44
S315080172E0EEE75362F1E700BF0090005000400250FC
S315080172F000F0490264666666D8B80500BBCF05008A
S31508017300B0F5207F10B50C4657D008D8B0F5007FE8
S3150801731048D003D830B3B0F5C07F23D010BDB0F53F
S31508017320607FFBD129492A48D1F8FC2012F08072E6
S315080173301EBFD1F8FC3023F08073C1F8FC30D0F8B9
S315080173408030611E23F0300444EA0114C0F88040FD
S31508017350002AE3D01D4AD2F8FC3043F08073C2F804
S31508017360FC30DBE724F0AFFF24F0BBFF4FF480319C
S31508017370184B174A1967136F611E23F4704444EAC0
S3150801738001341467FDF754F80446FFF75DF9C0F1B7
S315080173900201204624F09FFF00F02EF8BDE81040B8
S315080173A0FFF7D2BC0A4A0139D2F8903023F0F854D3
S315080173B044EA0164C2F89040B0E7054B013C196FF5
S315080173C021F4806141EA84241C67A7E700ED00E007
S315080173D0008000500090005008B50121022000F0FD
S315080173E075F824F070FF24F07CFF4FF48032014BCE
S315080173F01A6708BD0090005008B54FF4C070FFF732
S31508017400A5FBBDE80840044988428CBF0221012139
S315080174104FF42070FFF774BF80F0FA02054B42095A
S3150801742053F8223000F01F0023FA00F0C04300F0A1
S315080174300100704700E100E0024A536B0342FCD1A8
S31508017440704700BF00400950044A4178536F23F43E
S31508017450407343EA01235367704700BF0040005059
S315080174600A4A10B51369044643F00403136103F08D
S3150801747091FD24F060FF30BF24F05EFF03F09EFD0E
S315080174801CB9BDE81040FCF7D3BF10BD00ED00E004
S31508017490084A10B51369044643F00403136103F05F
S315080174A079FD30BF03F08AFD1CB9BDE81040FCF731
S315080174B0BFBF10BD00ED00E0034A0179D36E23F08A
S315080174C030030B43D366704700400050F8B50446B5
S315080174D01C4BD3F88420D106FBD4D3F88430C3F3EC
S315080174E081139C422CD0FCF789FF012C064602D158
S315080174F0214624F0F0FE24F00EFF4FF00072124BE5
